:020000040000fa
:080000000002040000000000f2
:020000040000fa
:100400008f8a20000e7f22000e018800000000006d
:100410000c00070000d3200001002000110007009d
:10042000000020000000e000020032000000020096
:1004300000000000080b0200000000000040da008d
:100440000000fe004440a900000020000000e00081
:100450000300320000002000a00188004440a800f2
:100460000000060091018800800078000000eb0089
:1004700015003700e280400032a0b4009101ba00bc
:10048000e280400032a0b4009102ba00e280400055
:1004900032a0b4000002eb00472bde00f507b200eb
:1004a000602ce10004003a000059eb008301e900f0
:1004b000fdff3e00040037006128e100010032002a
:1004c0000082eb00040007001101ba000200e00006
:1004d000e8ff3a00000006003159ba008301e90044
:1004e0000c0032002159ba008301e90008003200f3
:1004f0000400e00003003a00e280400032a0b400b3
:10050000f5ff370011d9ba008301e900faff3a007c
:100510008100e800e180400032a0b4000000060045
:100520000040da000000fe00889fbe008a9fbe00e7
:10053000010578000100e0000400350008003c00df
:100540000000e000200032000500370060001000cd
:10055000e080180002003b0001f02c001a00370078
:100560000004be006011b8006b0920000982cf00b2
:10057000020039000882cf000441b00069425200f5
:100580000e00320008003b008281710061016400ae
:100590008904d1000884d3008b05e8000442e800f8
:1005a000f9ff3a00050037000804440089844c0034
:1005b0008b05e9000442e900fbff3a00b8000700a0
:1005c0000af0a70001f0a0004f05be004f04be00d6
:1005d00000000600889fbe008a9fbe008c1f780026
:1005e000d5000700dc00330003866c006450e10096
:1005f000240032006420e100270032006150e10055
:10060000220032006120e100210032008b8542008f
:10061000eb07b1000134b800003ab800080442000a
:1006200089844a00013ab8000030b8008880400050
:1006300009014a00040033000000400081804800a6
:10064000020149008b05e900c909dd008301700042
:100650000100320013002000c814de004814dd0041
:100660004709de001200b200c808de0008847000ee
:100670008b00070001f0a1000cf0a70001f0a00022
:10068000be0037006120e100c00032000801be005a
:100690000200be00f7ff37006150e100fcff3a00a6
:1006a000ba00370003f0a200889fbe008a9fbe00f8
:1006b0008c1f7800a0000700a70033006450e10001
:1006c0004f0032006420e1005200320003826c00cf
:1006d00007003b000905d0000306d000820f54003c
:1006e0000c065d000200390002003200890178002a
:1006f000030678008582550004003d000003fd00dc
:100700008103fd008502ea008b854200840f7200a0
:1007100002003b0060001000e08018006011b8008b
:100720000005eb007a28e1000a0039000600780095
:10073000c75ddd00f707b200878075002d00370028
:10074000828171000a017800610560008180d1001a
:100750000080d3008502e900f9ff3b000604400059
:100760008784480002003b0060041400e0841c0001
:100770000988a300070032008a817100828171001c
:10078000610164008904d1000884d3008b05e8006e
:10079000170037000978a30013003a000b00e000af
:1007a000130034008b05e9000804440089844c00e0
:1007b0000a4474000978a3000d003a000b00e00021
:1007c000070034008b05e9000804440089844c00cc
:1007d00001003a000b0020000978a300f7ff320067
:1007e0000001eb0002003700828171000a017800ed
:1007f0002b0007000cf0a70001f0a0005f003700fd
:100800006420e10002003a00838f6c005f00330037
:100810000801be000200be00580037000001be0003
:100820005d0007000470a70003f0a1006509b10096
:10083000160032000d0035006828e1000600350082
:10084000f0ff2f00f1ff27000300e00013003b0042
:1008500001002800000005000000400081804800e1
:100860008502e900fcff3a0008003700f88f4200db
:1008700002003c008000eb00000005008100d10078
:100880000080d3008502e800fcff3a000300e0008e
:1008900002003b0060001000e0801800000006002d
:1008a00081002000618055000b003d000b002000fe
:1008b00061fe2f000100e1001d0034008281710003
:1008c000610164008904d1000884d3000000e800bd
:1008d000faff3a007100200061006400030070001c
:1008e000020060000900320061044400e0844c0012
:1008f0000988a500050032008b05e8006808e100c2
:1009000002003a008904d1000884d300f20f2000cd
:100910000258e10005003d00c75ddd00f907b200a7
:100920008980750008007800000006000bf8270099
:100930008b007800000005000004be0016000700d0
:100940000003be000405be000200be001200070046
:10095000844f7500000006000200be006450e100f4
:10096000050036006420e100020036000968a3009b
:1009700001003a000800be000160a0004f067800a8
:100980004f05be004f04be0000000600f0ff2f0020
:10099000f1ff2700f9ff3700c70ade00f107b200b8
:1009a000f50fb20008003200e1cf42000200320031
:1009b0000170a00024000500810f700001003200ca
:1009c0000408050044000500810f700002003a0091
:1009d000140005008502e9000000400081c04800c5
:0c09e000fcff3b000170a000240005009b
:020000040000fa
:0200000401f009
:04000c00f8ff0000f9
:020000040000fa
:0200000401f009
:040010007dff000070
:020000040000fa
:0200000401f009
:040014007fff00006a
:020000040000fa
:0200000401f009
:04001800ffff0000e6
:020000040000fa
:0200000401f009
:04001c00deff000003
:020000040000fa
:1000080090020000900200009002000090020000a0
:100018009002000090020000900200009002000090
:100028009002000090020000900200009002000080
:100038009002000090020000900200009002000070
:10004800c809000090020000900200009002000021
:100058009002000090020000900200009002000050
:100068009002000090020000900200009002000040
:100078009002000090020000900200009002000030
:100088009002000090020000900200009002000020
:100098009002000090020000900200009002000010
:1000a8009002000090020000900200009002000000
:1000b80090020000900200009002000090020000f0
:1000c80090020000900200009002000090020000e0
:1000d80090020000900200009002000090020000d0
:1000e80090020000900200009002000090020000c0
:1000f80090020000900200009002000090020000b0
:10010800900200009002000090020000900200009f
:10011800900200009002000090020000900200008f
:10012800900200009002000090020000900200007f
:10013800900200009002000090020000900200006f
:10014800900200009002000090020000900200005f
:10015800900200009002000090020000900200004f
:10016800900200009002000090020000900200003f
:10017800900200009002000090020000900200002f
:10018800900200009002000090020000900200001f
:10019800900200009002000090020000900200000f
:1001a80090020000900200009002000090020000ff
:1001b80090020000900200009002000090020000ef
:1001c80090020000900200009002000090020000df
:1001d80090020000900200009002000090020000cf
:1001e80090020000900200009002000090020000bf
:0801f8009002000090020000db
:020000040000fa
:10020800900200009002000090020000900200009e
:10021800900200009002000090020000900200008e
:10022800900200009002000090020000900200007e
:10023800900200009002000090020000900200006e
:10024800c80900009002000090020000900200001f
:10025800900200009002000090020000900200004e
:10026800900200009002000090020000900200003e
:10027800900200009002000090020000900200002e
:10028800900200009002000090020000900200001e
:10029800900200009002000090020000900200000e
:1002a80090020000900200009002000090020000fe
:1002b80090020000900200009002000090020000ee
:1002c80090020000900200009002000090020000de
:1002d80090020000900200009002000090020000ce
:1002e80090020000900200009002000090020000be
:1002f80090020000900200009002000090020000ae
:10030800900200009002000090020000900200009d
:10031800900200009002000090020000900200008d
:10032800900200009002000090020000900200007d
:10033800900200009002000090020000900200006d
:10034800900200009002000090020000900200005d
:10035800900200009002000090020000900200004d
:10036800900200009002000090020000900200003d
:10037800900200009002000090020000900200002d
:10038800900200009002000090020000900200001d
:10039800900200009002000090020000900200000d
:1003a80090020000900200009002000090020000fd
:1003b80090020000900200009002000090020000ed
:1003c80090020000900200009002000090020000dd
:1003d80090020000900200009002000090020000cd
:1003e80090020000900200009002000090020000bd
:0803f8009002000090020000d9
:020000040000fa
:1009ec000400fa0080017800f1bf9f007fb89700e7
:1009fc000000e00013003200630090000000e000f3
:100a0c0010003a001300900013006800e0bf9f0034
:100a1c0023019000efb897001300780001016100ea
:100a2c006fba97008480ea00010060000001710039
:100a3c00a201980023009000d001980013027800c6
:100a4c00940198007fb89700e00198002300900073
:100a5c000000e00004003200430090001100200070
:100a6c000000e000010032008000eb00b1019800b2
:100a7c0023029000c40198000080fa0000000600d8
:100a8c00a2002000809fbe00110009000200d800c7
:100a9c00000178004f00be00818140006489200075
:100aac0082317a0063017a006a11b90002005000a9
:100abc008100e9008180400080307a00000006004f
:100acc00881f7800cbc2bf000080fb004200de0014
:100adc000000a2006100600090428800cbc2bf0001
:100aec000080fb004300de000000a20061006000fb
:100afc0020428800cbc2bf000080fb004400de0017
:100b0c000000a20061006000b0418800cbc2bf00b1
:100b1c000080fb004500de000000a20061006000c8
:100b2c0040418800a143800020852000acff0700d5
:100b3c00a143800040842000a9ff0700a14380004e
:100b4c0060832000a6ff0700a14380008082200064
:100b5c00a3ff070008418000e20f5400b9003200e7
:100b6c0005003e000800e0000a003200e10f5400ce
:100b7c005e013a0069003700ec0f54003d01320071
:100b8c00ed0f54004e013200e30f540057013a00b0
:100b9c00fb003700384488004844880058448800db
:100bac006844880078448800884488009844880009
:100bbc00a844880008407800020307000080fb006e
:100bcc00c0408800c0408000c24080000007b200d6
:100bdc004480de006a00b9006f0161000001410031
:100bec00f240880010c0b300f60207000080fb0042
:100bfc00b0408800b0408000b24080000007b200d6
:100c0c004480de006a00b9006f0161000001410000
:100c1c00e240880020c0b300ea0207000080fb001d
:100c2c00a0408800a0408000a24080000003b200d9
:100c3c004480de006a00b9006f01610000014100d0
:100c4c00d2408800f140800030408000808f5000fe
:100c5c0005003200100020002040880000e2240033
:100c6c00104488008428ef00f14080003140880057
:100c7c001044800021448000e00f5000e08f5800a9
:100c8c0001003a0028408800f0408000110020004c
:100c9c007bff0700b00020000408e20001003a00ce
:100cac00a0002000d0448800e040800041002000db
:100cbc0073ff0700b00020000408e20001003a00b6
:100ccc00a000200000458800d0408000710020006a
:100cdc006bff07005808e2000c003200000c2000eb
:100cec00a14080008080600041408800d04080009e
:100cfc007040880010002000004188000148280046
:100d0c00b1438800e1012000c1438800c0002000ed
:100d1c002c08e200f4003a00f40037008628ef00bb
:100d2c008828ef008a28ef008c28ef008e28ef002f
:100d3c009028ef0098448800a84488003c08e20002
:100d4c00090032000e28ec0070408000f70f5000b4
:100d5c00010034000e28ef0000482800b043880042
:100d6c00e0012000c04388002e08e2000900320098
:100d7c000e28ed000e08e20002003d00700120007c
:100d8c007040880001482800b1438800e101200030
:100d9c00c1438800b0438000c1438000e00f500085
:100dac00e08f580001003a002028ef005808e200bc
:100dbc00210032007040800073408000a2002000af
:100dcc00110009000200d8004400dd00801f7800eb
:100ddc00110009008201d8004f007800010070005a
:100dec00404088004140800020c0b30068020700ea
:100dfc0010c0b300730207000080fb00b0408800f5
:100e0c0000082000b14080008080600051408800c4
:100e1c00b0408000b24080000007b2004480de0089
:100e2c006a00b9006f016100000141008240880036
:100e3c0020002000004188007040800071002000dc
:100e4c004d0037008628ef008828ef008a28ef0035
:100e5c001000200060448800704488009028ef0047
:100e6c009228ef009428ef003c08e2000a003200c0
:100e7c001028ec0081408000b0032000808f5000cf
:100e8c00010034001028ef0000482800b04388000f
:100e9c00e0012000c04388002e08e2000900320067
:100eac001028ed001008e20002003d00b003200005
:100ebc008040880001482800b1438800e1012000ef
:100ecc00c1438800b0438000c1438000e00f500054
:100edc00e08f580001003a002028ef005808e2008b
:100eec00230032005440800080408000834080000a
:100efc00a2002000110009000200d8004400dd000f
:100f0c00801f7800110009008201d8004f00780082
:100f1c0001007000000272005440880051408000b3
:100f2c0010c0b3001a0207000040eb0025020700b6
:100f3c000080fb00c040880000082000c1408000f9
:100f4c008080600061408800c0408000c24080000a
:100f5c000007b2004480de006a00b9006f01610036
:100f6c0000014100924088003000200000418800c0
:100f7c008040800041002000c1fe07005b0037006c
:100f8c001000200030448800404488008a28ef007c
:100f9c008c28ef008e28ef009028ef009228ef00ad
:100fac009428ef003c08e2000a0032001228ec0002
:100fbc0091408000b0032000808f5000010034006d
:100fcc001228ef0000482800b0438800e001200000
:100fdc00c04388002e08e200090032001228ed0000
:100fec001208e20002003d00b0032000904088008f
:100ffc0001482800b1438800e1012000c14388006a
:10100c00b0438000c1438000e00f5000e08f5800d7
:10101c0001003a002028ef005808e20012003200cc
:10102c00644080009040800093408000a20020002b
:10103c00110009000200d8004400dd00801f780078
:10104c00110009008201d8004f00780001007000e7
:10105c000002720064408800614080000040eb0098
:10106c00cb0107002028ef009040800011002000e9
:10107c00c1ff37008628ef008828ef008a28ef0090
:10108c008c28ef008e28ef009028ef009228ef00bc
:10109c009428ef00a0002000b0448800c0448800d1
:1010ac00d0448800e0448800f04488000045880063
:1010bc001045880020458800d00020000a00370029
:1010cc00ec01070000408800510020006cfe070076
:1010dc00c0002000e0448800d844880060418000b3
:1010ec000000e00001003a00004188004f04780045
:1010fc0000000600000278001001780090009000bb
:10110c00a00190000100ea00010070004f00de0019
:10111c0061001000000161000300ea000300700090
:10112c004f00de006100100000016100030032007e
:10113c001000200010029800200298009400780003
:10114c0014019000a40190000200ea00020070005b
:10115c004f00de0061001000808060008380600022
:10116c000400320010002000100298000000eb0078
:10117c00200298001400780010029800000006006d
:10118c0012c1bf00f1ccb3000140600012e1b70006
:10119c00800c20007008880013e1a8009500a800be
:1011ac00a8c0bf0081cfb300014060003040b30045
:1011bc00a8e0b7006428ef00000006001043800090
:1011cc00e30f50001b00320006003c00e10f500002
:1011dc001000320013003c000000e0000900320057
:1011ec0027003700e50f50001a00320015003500bb
:1011fc00e60f50001b003200e70f500020003a00b1
:10120c001c00370020002000904388007028ef005d
:10121c001b00370001402000814388007228ef003a
:10122c001700370012002000924388007028ef004e
:10123c001300370000802000804388007228ef00e4
:10124c000f00370001002800814388007228ef004e
:10125c000b00370002002100824388007228ef0047
:10126c000700370000002200804388007228ef003e
:10127c000300370001002400814388007228ef002e
:10128c0010438000000040006189200060807800dd
:10129c00cf80de00ed0f5000e08f580038003e008c
:1012ac00006001000d0037000f00370011003700ff
:1012bc0013003700150037001700370019003700ee
:1012cc001b0037001d0037001f0037002c003700b3
:1012dc002000370021003700230037007007200062
:1012ec0001002000220037004002200001002000f5
:1012fc001f003700e0052000010020001c00370013
:10130c00e00620000100200019003700d002200068
:10131c000100200016003700b0062000010020005c
:10132c0013003700b0072000010020001000370028
:10133c0060022000010020000d003700f0072000a3
:10134c00010020000a003700f006200001002000f8
:10135c00070037007068a80000000600f0002000ad
:10136c0001002000020037003005200001002000a1
:10137c0002872000120970005289700000000600dc
:10138c00000006003600f800809fbe00829fbe0061
:10139c00849fbe00869fbe003400f8000000200031
:1013ac00a00188008500a9007408aa0010448000e0
:1013bc0021448000e00f5000e08f580006003200fe
:1013cc00104480002144800061005000e0805800ef
:1013dc001044880021448800f043800001448000c0
:1013ec00e00f5000e08f580006003200f043800000
:1013fc000144800061005000e0805800f0438800f8
:10140c0001448800d0438000e1438000e00f50008d
:10141c00e08f580006003200d0438000e14380008a
:10142c0061005000e0805800d0438800e143880000
:10143c00b0438000c1438000e00f5000e08f5800a3
:10144c0006003200b0438000c143800061005000b0
:10145c00e0805800b0438800c143880020438000de
:10146c00e30f50002600320004003e00e10f500054
:10147c000f0032001f003e0008003700e50f50003f
:10148c003e00320034003900e60f50003e003200be
:10149c00e70f50004e003a0046003700cc22a9005e
:1014ac00cc42a900cc62a900c482a9004600370036
:1014bc006208e200020032006228ed0002003700f0
:1014cc0080002000104388003cff07001043800080
:1014dc00000040006188200060807800cf80de0032
:1014ec00404388005143880040012000304388006d
:1014fc0020003700cc42a900300020003300370018
:10150c008043800091438000610060000100200056
:10151c006043880071438800604380007143800001
:10152c00e00f5000e08f580002003200cc22a800df
:10153c0001003700cc22a900804380009143800039
:10154c008180d1000080d3008043880091438800c3
:10155c00400020001d003700cc42a80030002000c5
:10156c00204388006628ed00500020006608e20049
:10157c00160032002000200014003700cc62a800b6
:10158c006000200011003700cc62a90040438000ad
:10159c0051438000e00f5000e08f580003003200f0
:1015ac0061092000f14388008028ef0070002000c2
:1015bc0006003700f043800001448000e00f50002b
:1015cc00e08f580002003a001000200020438800f1
:1015dc003400f9004f03be004f02be004f01be00a5
:1015ec004f00be003600f90000400600000120004c
:1015fc0020088800800c2000100888000021ef00d3
:10160c0000000600303a800001e02f00010060006d
:10161c009002b300303a880044c7bf00f043b200d8
:10162c0044e7b70044c7bf0001ceb30001406000df
:10163c0044e7b7004827ef0032002000a109200042
:10164c00800720003374200080497800814978009d
:10165c0082497800120020007105200060042000ef
:10166c0023742000804978008149780082497800f1
:10167c0001c3b30043c7bf000047b200814f500005
:10168c00fcff3a0042c7bf000058a300fdff320028
:10169c00103a80000060a100630420007205200055
:1016ac0021742000834878008248780080487800b4
:1016bc00cec6bf0001ceb300014060003041b30084
:1016cc00cee6b700103a80000060a0002174200024
:1016dc008348780082487800804878002ca3ef007b
:1016ec00c902a800c922a800c8a2a900c822a90042
:1016fc00c842a900c862a900c082a900c882a9007a
:10170c00c942a800c962a800c982a800c9a2a80041
:10171c00cc22a900cc42a900cc62a900c482a900a9
:10172c00cc82a800b400070095fe07000001200041
:10173c0020088800800c2000100888000021ef0091
:10174c0067000700a0002000b0448800c044880057
:10175c00d0448800e0448800f044880000458800ac
:10176c0010458800204588008628ef008828ef0067
:10177c008a28ef008c28ef008e28ef009028ef00cd
:10178c009228ef009428ef00cdfc0700feff3700f5
:10179c00889fbe00004478008144780070000700e8
:1017ac0000cdb3007d000700084078007b000700e7
:1017bc000940780079000700730007004f04be0051
:1017cc0000000600881f78000044780064000700c1
:1017dc0000cdb30071000700a648e2000d003a00ee
:1017ec00084078006d000700a648e20009003a00a6
:1017fc006000070010cdb30068000700a648e200a7
:10180c0004003a006c0007000044780072000700e6
:10181c005d0007000880fb004f0478000000060004
:10182c0000000600f0c0b300e6ff07000004e00073
:10183c000f003d0011c1b30060c0b300d4ff07001e
:10184c0011c1b30050c0b300d1ff070011c0b300e9
:10185c0040c0b300ceff07008040eb0020c0b300b7
:10186c00cbff07008040eb0010c0b300c8ff07009f
:10187c0000000600889fbe008a1f780020c1b300bc
:10188c00d0ff07000080fb004600de00004478001b
:10189c0010c1b300cbff0700004578000800fb0027
:1018ac00cf80de001dfb07000200200003e82300b0
:1018bc0045fb07000004be000a00fb00cf80de00e1
:1018cc0016fb07000001be000800be0073fb0700fa
:1018dc00cffb07004f0578004f04be000000060048
:1018ec0000882000201088008000eb004110880048
:1018fc000020210030108800011088001110880091
:10190c0007e2a8000000060005e1a800410820003d
:10191c0091407800c308de0086c0bf000000d100f3
:10192c00010070000008a300f8ff320084c0bf0063
:10193c0068406000050032008460a9008620a90080
:10194c0010c0b300a6e8b70002003700a6e8b70045
:10195c008620a90005e1a9000021ef000000060087
:10196c0009c2bf000068a300fdff3a000602a800f0
:10197c00e5ff370009c2bf000068a300fdff3a0075
:10198c000622a800e0ff370009c2bf000068a300d0
:10199c00fdff3a000642a800dbff370080407800cc
:1019ac0009c2bf000068a300fdff3a000180fb00e4
:1019bc0010108800d4ff370009c2bf000068a300d4
:1019cc00fdff3a000662a800cfff07000010800060
:1019dc000080fb000000060006a2a8000682a800fa
:1019ec00c9ff070006a2a9000000060006a2a90074
:1019fc000682a800c4ff370010c1bf00f1ccb300b1
:101a0c000140600010e1b700007d200060088800f4
:101a1c0011e1a8008ac1bf0081cfb3000140600072
:101a2c008ae1b7008a61a9008ac1bf000140600049
:101a3c006040b3008ae1b7000000eb00400c880066
:101a4c00300c880020032000400c8800300c8800eb
:041a5c000000060080
:020000040000fa
:101a600060080000460000000000000000080000c0
:101a70006000000000000000a60800000200000056
:081a800000000000000000005e
:00000001FF
